{
  "contractName": "Lottery",
  "abi": [
    {
      "constant": true,
      "inputs": [],
      "name": "owner",
      "outputs": [
        {
          "name": "",
          "type": "address"
        }
      ],
      "payable": false,
      "stateMutability": "view",
      "type": "function",
      "signature": "0x8da5cb5b"
    },
    {
      "inputs": [],
      "payable": false,
      "stateMutability": "nonpayable",
      "type": "constructor",
      "signature": "constructor"
    },
    {
      "anonymous": false,
      "inputs": [
        {
          "indexed": false,
          "name": "index",
          "type": "uint256"
        },
        {
          "indexed": false,
          "name": "betPerson",
          "type": "address"
        },
        {
          "indexed": false,
          "name": "amount",
          "type": "uint256"
        },
        {
          "indexed": false,
          "name": "answerBlockNumber",
          "type": "uint256"
        },
        {
          "indexed": false,
          "name": "challenges",
          "type": "bytes1"
        }
      ],
      "name": "BET",
      "type": "event",
      "signature": "0x9a95282c9d1697e2c96ac19443e3e62e2bad3946cd60803ad43ebd9c471d7ba4"
    },
    {
      "constant": true,
      "inputs": [],
      "name": "getValue",
      "outputs": [
        {
          "name": "value",
          "type": "uint256"
        }
      ],
      "payable": false,
      "stateMutability": "pure",
      "type": "function",
      "signature": "0x20965255"
    },
    {
      "constant": true,
      "inputs": [],
      "name": "getPot",
      "outputs": [
        {
          "name": "potValue",
          "type": "uint256"
        }
      ],
      "payable": false,
      "stateMutability": "view",
      "type": "function",
      "signature": "0x403c9fa8"
    },
    {
      "constant": false,
      "inputs": [
        {
          "name": "challenges",
          "type": "bytes1"
        }
      ],
      "name": "bet",
      "outputs": [
        {
          "name": "result",
          "type": "bool"
        }
      ],
      "payable": true,
      "stateMutability": "payable",
      "type": "function",
      "signature": "0xf4b46f5b"
    },
    {
      "constant": true,
      "inputs": [
        {
          "name": "index",
          "type": "uint256"
        }
      ],
      "name": "getBetInfo",
      "outputs": [
        {
          "name": "answerBlockNumber",
          "type": "uint256"
        },
        {
          "name": "betPerson",
          "type": "address"
        },
        {
          "name": "challenges",
          "type": "bytes1"
        }
      ],
      "payable": false,
      "stateMutability": "view",
      "type": "function",
      "signature": "0x79141f80"
    },
    {
      "constant": false,
      "inputs": [
        {
          "name": "index",
          "type": "uint256"
        }
      ],
      "name": "popBet",
      "outputs": [
        {
          "name": "",
          "type": "bool"
        }
      ],
      "payable": false,
      "stateMutability": "nonpayable",
      "type": "function",
      "signature": "0xd04c9a8c"
    }
  ],
  "bytecode": "0x608060405234801561001057600080fd5b5033600360006101000a81548173ffffffffffffffffffffffffffffffffffffffff021916908373ffffffffffffffffffffffffffffffffffffffff160217905550610834806100616000396000f3fe608060405260043610610078576000357c0100000000000000000000000000000000000000000000000000000000900463ffffffff168063209652551461007d578063403c9fa8146100a857806379141f80146100d35780638da5cb5b146101a0578063d04c9a8c146101f7578063f4b46f5b1461024a575b600080fd5b34801561008957600080fd5b506100926102b2565b6040518082815260200191505060405180910390f35b3480156100b457600080fd5b506100bd6102bb565b6040518082815260200191505060405180910390f35b3480156100df57600080fd5b5061010c600480360360208110156100f657600080fd5b81019080803590602001909291905050506102c5565b604051808481526020018373ffffffffffffffffffffffffffffffffffffffff1673ffffffffffffffffffffffffffffffffffffffff168152602001827effffffffffffffffffffffffffffffffffffffffffffffffffffffffffffff19167effffffffffffffffffffffffffffffffffffffffffffffffffffffffffffff19168152602001935050505060405180910390f35b3480156101ac57600080fd5b506101b56103ea565b604051808273ffffffffffffffffffffffffffffffffffffffff1673ffffffffffffffffffffffffffffffffffffffff16815260200191505060405180910390f35b34801561020357600080fd5b506102306004803603602081101561021a57600080fd5b8101908080359060200190929190505050610410565b604051808215151515815260200191505060405180910390f35b6102986004803603602081101561026057600080fd5b8101908080357effffffffffffffffffffffffffffffffffffffffffffffffffffffffffffff19169060200190929190505050610474565b604051808215151515815260200191505060405180910390f35b60006005905090565b6000600454905090565b60008060006102d26107ae565b6002600086815260200190815260200160002060606040519081016040529081600082015481526020016001820160009054906101000a900473ffffffffffffffffffffffffffffffffffffffff1673ffffffffffffffffffffffffffffffffffffffff1673ffffffffffffffffffffffffffffffffffffffff1681526020016001820160149054906101000a90047f0100000000000000000000000000000000000000000000000000000000000000027effffffffffffffffffffffffffffffffffffffffffffffffffffffffffffff19167effffffffffffffffffffffffffffffffffffffffffffffffffffffffffffff1916815250509050806000015193508060200151925080604001519150509193909250565b600360009054906101000a900473ffffffffffffffffffffffffffffffffffffffff1681565b6000600260008381526020019081526020016000206000808201600090556001820160006101000a81549073ffffffffffffffffffffffffffffffffffffffff02191690556001820160146101000a81549060ff0219169055505060019050919050565b60006611c37937e08000341415156104f4576040517f08c379a000000000000000000000000000000000000000000000000000000000815260040180806020018281038252600e8152602001807f6e6f7420656e6f7567682045544800000000000000000000000000000000000081525060200191505060405180910390fd5b6104fd82610648565b1515610571576040517f08c379a000000000000000000000000000000000000000000000000000000000815260040180806020018281038252600c8152602001807f63616e742070757368426574000000000000000000000000000000000000000081525060200191505060405180910390fd5b7f9a95282c9d1697e2c96ac19443e3e62e2bad3946cd60803ad43ebd9c471d7ba4600180540333346003430186604051808681526020018573ffffffffffffffffffffffffffffffffffffffff1673ffffffffffffffffffffffffffffffffffffffff168152602001848152602001838152602001827effffffffffffffffffffffffffffffffffffffffffffffffffffffffffffff19167effffffffffffffffffffffffffffffffffffffffffffffffffffffffffffff191681526020019550505050505060405180910390a160019050919050565b60006106526107ae565b6003430181600001818152505033816020019073ffffffffffffffffffffffffffffffffffffffff16908173ffffffffffffffffffffffffffffffffffffffff16815250508281604001907effffffffffffffffffffffffffffffffffffffffffffffffffffffffffffff191690817effffffffffffffffffffffffffffffffffffffffffffffffffffffffffffff191681525050806002600060015481526020019081526020016000206000820151816000015560208201518160010160006101000a81548173ffffffffffffffffffffffffffffffffffffffff021916908373ffffffffffffffffffffffffffffffffffffffff16021790555060408201518160010160146101000a81548160ff02191690837f0100000000000000000000000000000000000000000000000000000000000000900402179055509050506001600081548092919060010191905055506001915050919050565b60606040519081016040528060008152602001600073ffffffffffffffffffffffffffffffffffffffff16815260200160007effffffffffffffffffffffffffffffffffffffffffffffffffffffffffffff19168152509056fea165627a7a7230582062447bcc47d3e5b619381b0bcb60159bbc4d6a2e616302db215f0549e0e9d1a20029",
  "source": "pragma solidity >=0.4.21 <0.6.0;\r\n\r\ncontract Lottery {\r\n\r\n    struct BetInfo {\r\n        uint256 answerBlockNumber;\r\n        address payable betPerson;\r\n        byte challenges;\r\n    }\r\n\r\n    uint256 private head;\r\n    uint256 private tail;\r\n    mapping(uint256=>BetInfo) private betInfoMap;\r\n\r\n    address public owner;\r\n\r\n    uint256 constant internal BET_AMOUNT = 5 * 10 ** 15;\r\n    uint256 constant internal BLOCK_INTERVAL = 3;\r\n    uint256 constant internal BLOCK_LIMIT = 256;\r\n\r\n    uint256 private pot;\r\n\r\n    event BET(uint256 index, address betPerson,uint256 amount, uint256 answerBlockNumber, byte challenges);\r\n\r\n    constructor() public {\r\n        owner = msg.sender;\r\n    }\r\n\r\n    function getValue() public pure returns (uint256 value){\r\n        return 5;\r\n    }\r\n\r\n    function getPot() public view returns (uint256 potValue) {\r\n        return pot;\r\n    }\r\n\r\n    /**\r\n    @dev 배팅을 하고 , 이더 보내고, 해쉬값 보낸다.\r\n    @param challenges 유저입력해쉬 \r\n    @return 함수 수행여부에 따른 boolean\r\n     */\r\n    function bet(byte challenges) public payable returns (bool result) {\r\n        require(msg.value == BET_AMOUNT, 'not enough ETH');\r\n        require(pushBet(challenges), 'cant pushBet');\r\n        emit BET(tail-1, msg.sender,msg.value, block.number+BLOCK_INTERVAL, challenges);\r\n\r\n        return true;\r\n    }\r\n\r\n    function getBetInfo(uint256 index) public view returns (uint256 answerBlockNumber, address betPerson, byte challenges) {\r\n        BetInfo memory b = betInfoMap[index];\r\n        answerBlockNumber = b.answerBlockNumber;\r\n        betPerson = b.betPerson;\r\n        challenges = b.challenges;\r\n    }\r\n\r\n    function pushBet(byte challenges) internal returns (bool){\r\n        BetInfo memory b;\r\n\r\n        b.answerBlockNumber = block.number + BLOCK_INTERVAL;\r\n        b.betPerson = msg.sender;\r\n        b.challenges = challenges;\r\n\r\n        betInfoMap[tail] = b;\r\n        tail++;\r\n\r\n        return true;\r\n    }\r\n\r\n    function popBet(uint256 index) public returns (bool){\r\n        delete betInfoMap[index];\r\n        \r\n        return true;   \r\n    }\r\n}",
  "sourcePath": "C:/lottery-smartcontract/contracts/Lottery.sol",
  "compiler": {
    "name": "solc",
    "version": "0.5.0+commit.1d4f565a.Emscripten.clang"
  },
  "schemaVersion": "3.0.1",
  "updatedAt": "2019-06-18T04:59:04.841Z",
  "devdoc": {
    "methods": {
      "bet(bytes1)": {
        "details": "배팅을 하고 , 이더 보내고, 해쉬값 보낸다.\r",
        "params": {
          "challenges": "유저입력해쉬 \r"
        },
        "return": "함수 수행여부에 따른 boolean\r"
      }
    }
  },
  "userdoc": {
    "methods": {}
  }
}