{
  "contractName": "Lottery",
  "abi": [
    {
      "constant": true,
      "inputs": [],
      "name": "owner",
      "outputs": [
        {
          "name": "",
          "type": "address"
        }
      ],
      "payable": false,
      "stateMutability": "view",
      "type": "function"
    },
    {
      "inputs": [],
      "payable": false,
      "stateMutability": "nonpayable",
      "type": "constructor"
    },
    {
      "anonymous": false,
      "inputs": [
        {
          "indexed": false,
          "name": "index",
          "type": "uint256"
        },
        {
          "indexed": false,
          "name": "betPerson",
          "type": "address"
        },
        {
          "indexed": false,
          "name": "amount",
          "type": "uint256"
        },
        {
          "indexed": false,
          "name": "answerBlockNumber",
          "type": "uint256"
        },
        {
          "indexed": false,
          "name": "challenges",
          "type": "bytes1"
        }
      ],
      "name": "BET",
      "type": "event"
    },
    {
      "constant": true,
      "inputs": [],
      "name": "getValue",
      "outputs": [
        {
          "name": "value",
          "type": "uint256"
        }
      ],
      "payable": false,
      "stateMutability": "pure",
      "type": "function"
    },
    {
      "constant": true,
      "inputs": [],
      "name": "getPot",
      "outputs": [
        {
          "name": "potValue",
          "type": "uint256"
        }
      ],
      "payable": false,
      "stateMutability": "view",
      "type": "function"
    },
    {
      "constant": false,
      "inputs": [
        {
          "name": "challenges",
          "type": "bytes1"
        }
      ],
      "name": "bet",
      "outputs": [
        {
          "name": "result",
          "type": "bool"
        }
      ],
      "payable": true,
      "stateMutability": "payable",
      "type": "function"
    },
    {
      "constant": false,
      "inputs": [],
      "name": "distribute",
      "outputs": [],
      "payable": false,
      "stateMutability": "nonpayable",
      "type": "function"
    },
    {
      "constant": true,
      "inputs": [
        {
          "name": "challenges",
          "type": "bytes1"
        },
        {
          "name": "answer",
          "type": "bytes32"
        }
      ],
      "name": "isMatch",
      "outputs": [
        {
          "name": "",
          "type": "uint8"
        }
      ],
      "payable": false,
      "stateMutability": "pure",
      "type": "function"
    },
    {
      "constant": true,
      "inputs": [
        {
          "name": "answerBlockNumber",
          "type": "uint256"
        }
      ],
      "name": "getBlockStatus",
      "outputs": [
        {
          "name": "",
          "type": "uint8"
        }
      ],
      "payable": false,
      "stateMutability": "view",
      "type": "function"
    },
    {
      "constant": true,
      "inputs": [
        {
          "name": "index",
          "type": "uint256"
        }
      ],
      "name": "getBetInfo",
      "outputs": [
        {
          "name": "answerBlockNumber",
          "type": "uint256"
        },
        {
          "name": "betPerson",
          "type": "address"
        },
        {
          "name": "challenges",
          "type": "bytes1"
        }
      ],
      "payable": false,
      "stateMutability": "view",
      "type": "function"
    },
    {
      "constant": false,
      "inputs": [
        {
          "name": "index",
          "type": "uint256"
        }
      ],
      "name": "popBet",
      "outputs": [
        {
          "name": "",
          "type": "bool"
        }
      ],
      "payable": false,
      "stateMutability": "nonpayable",
      "type": "function"
    }
  ],
  "bytecode": "0x608060405234801561001057600080fd5b5033600360006101000a81548173ffffffffffffffffffffffffffffffffffffffff021916908373ffffffffffffffffffffffffffffffffffffffff160217905550610e9e806100616000396000f3fe608060405260043610610099576000357c0100000000000000000000000000000000000000000000000000000000900463ffffffff168063209652551461009e578063403c9fa8146100c957806379141f80146100f45780638da5cb5b146101c157806399a167d714610218578063a388c0e9146102a1578063d04c9a8c146102fe578063e4fc6b6d14610351578063f4b46f5b14610368575b600080fd5b3480156100aa57600080fd5b506100b36103d0565b6040518082815260200191505060405180910390f35b3480156100d557600080fd5b506100de6103d9565b6040518082815260200191505060405180910390f35b34801561010057600080fd5b5061012d6004803603602081101561011757600080fd5b81019080803590602001909291905050506103e3565b604051808481526020018373ffffffffffffffffffffffffffffffffffffffff1673ffffffffffffffffffffffffffffffffffffffff168152602001827effffffffffffffffffffffffffffffffffffffffffffffffffffffffffffff19167effffffffffffffffffffffffffffffffffffffffffffffffffffffffffffff19168152602001935050505060405180910390f35b3480156101cd57600080fd5b506101d6610508565b604051808273ffffffffffffffffffffffffffffffffffffffff1673ffffffffffffffffffffffffffffffffffffffff16815260200191505060405180910390f35b34801561022457600080fd5b5061027d6004803603604081101561023b57600080fd5b8101908080357effffffffffffffffffffffffffffffffffffffffffffffffffffffffffffff191690602001909291908035906020019092919050505061052e565b6040518082600281111561028d57fe5b60ff16815260200191505060405180910390f35b3480156102ad57600080fd5b506102da600480360360208110156102c457600080fd5b8101908080359060200190929190505050610877565b604051808260038111156102ea57fe5b60ff16815260200191505060405180910390f35b34801561030a57600080fd5b506103376004803603602081101561032157600080fd5b81019080803590602001909291905050506108cb565b604051808215151515815260200191505060405180910390f35b34801561035d57600080fd5b5061036661092f565b005b6103b66004803603602081101561037e57600080fd5b8101908080357effffffffffffffffffffffffffffffffffffffffffffffffffffffffffffff19169060200190929190505050610ade565b604051808215151515815260200191505060405180910390f35b60006005905090565b6000600454905090565b60008060006103f0610e18565b6002600086815260200190815260200160002060606040519081016040529081600082015481526020016001820160009054906101000a900473ffffffffffffffffffffffffffffffffffffffff1673ffffffffffffffffffffffffffffffffffffffff1673ffffffffffffffffffffffffffffffffffffffff1681526020016001820160149054906101000a90047f0100000000000000000000000000000000000000000000000000000000000000027effffffffffffffffffffffffffffffffffffffffffffffffffffffffffffff19167effffffffffffffffffffffffffffffffffffffffffffffffffffffffffffff1916815250509050806000015193508060200151925080604001519150509193909250565b600360009054906101000a900473ffffffffffffffffffffffffffffffffffffffff1681565b60008083905060008490506004827effffffffffffffffffffffffffffffffffffffffffffffffffffffffffffff1916908060020a820491505091506004827effffffffffffffffffffffffffffffffffffffffffffffffffffffffffffff19169060020a0291506004817effffffffffffffffffffffffffffffffffffffffffffffffffffffffffffff19169060020a0290506004817effffffffffffffffffffffffffffffffffffffffffffffffffffffffffffff1916908060020a82049150509050600084600060208110151561060457fe5b1a7f0100000000000000000000000000000000000000000000000000000000000000029050600085600060208110151561063a57fe5b1a7f01000000000000000000000000000000000000000000000000000000000000000290506004827effffffffffffffffffffffffffffffffffffffffffffffffffffffffffffff1916908060020a820491505091506004827effffffffffffffffffffffffffffffffffffffffffffffffffffffffffffff19169060020a0291506004817effffffffffffffffffffffffffffffffffffffffffffffffffffffffffffff19169060020a0290506004817effffffffffffffffffffffffffffffffffffffffffffffffffffffffffffff1916908060020a82049150509050837effffffffffffffffffffffffffffffffffffffffffffffffffffffffffffff1916827effffffffffffffffffffffffffffffffffffffffffffffffffffffffffffff19161480156107af5750827effffffffffffffffffffffffffffffffffffffffffffffffffffffffffffff1916817effffffffffffffffffffffffffffffffffffffffffffffffffffffffffffff1916145b156107c1576000945050505050610871565b837effffffffffffffffffffffffffffffffffffffffffffffffffffffffffffff1916827effffffffffffffffffffffffffffffffffffffffffffffffffffffffffffff191614806108565750827effffffffffffffffffffffffffffffffffffffffffffffffffffffffffffff1916817effffffffffffffffffffffffffffffffffffffffffffffffffffffffffffff1916145b15610868576002945050505050610871565b60019450505050505b92915050565b6000610100430382101561088e57600090506108c6565b610100430382101580156108a157504382105b156108af57600190506108c6565b43821015156108c157600290506108c6565b600390505b919050565b6000600260008381526020019081526020016000206000808201600090556001820160006101000a81549073ffffffffffffffffffffffffffffffffffffffff02191690556001820160146101000a81549060ff0219169055505060019050919050565b6000610939610e18565b6000805492505b600154831015610ad9576002600084815260200190815260200160002060606040519081016040529081600082015481526020016001820160009054906101000a900473ffffffffffffffffffffffffffffffffffffffff1673ffffffffffffffffffffffffffffffffffffffff1673ffffffffffffffffffffffffffffffffffffffff1681526020016001820160149054906101000a90047f0100000000000000000000000000000000000000000000000000000000000000027effffffffffffffffffffffffffffffffffffffffffffffffffffffffffffff19167effffffffffffffffffffffffffffffffffffffffffffffffffffffffffffff1916815250509150610a528260000151610877565b905060006003811115610a6157fe5b816003811115610a6d57fe5b1415610a7857610ac2565b60016003811115610a8557fe5b816003811115610a9157fe5b1415610a9c57610ac1565b60026003811115610aa957fe5b816003811115610ab557fe5b1415610ac057610ad9565b5b5b610acb836108cb565b508280600101935050610940565b505050565b60006611c37937e0800034141515610b5e576040517f08c379a000000000000000000000000000000000000000000000000000000000815260040180806020018281038252600e8152602001807f6e6f7420656e6f7567682045544800000000000000000000000000000000000081525060200191505060405180910390fd5b610b6782610cb2565b1515610bdb576040517f08c379a000000000000000000000000000000000000000000000000000000000815260040180806020018281038252600c8152602001807f63616e742070757368426574000000000000000000000000000000000000000081525060200191505060405180910390fd5b7f9a95282c9d1697e2c96ac19443e3e62e2bad3946cd60803ad43ebd9c471d7ba4600180540333346003430186604051808681526020018573ffffffffffffffffffffffffffffffffffffffff1673ffffffffffffffffffffffffffffffffffffffff168152602001848152602001838152602001827effffffffffffffffffffffffffffffffffffffffffffffffffffffffffffff19167effffffffffffffffffffffffffffffffffffffffffffffffffffffffffffff191681526020019550505050505060405180910390a160019050919050565b6000610cbc610e18565b6003430181600001818152505033816020019073ffffffffffffffffffffffffffffffffffffffff16908173ffffffffffffffffffffffffffffffffffffffff16815250508281604001907effffffffffffffffffffffffffffffffffffffffffffffffffffffffffffff191690817effffffffffffffffffffffffffffffffffffffffffffffffffffffffffffff191681525050806002600060015481526020019081526020016000206000820151816000015560208201518160010160006101000a81548173ffffffffffffffffffffffffffffffffffffffff021916908373ffffffffffffffffffffffffffffffffffffffff16021790555060408201518160010160146101000a81548160ff02191690837f0100000000000000000000000000000000000000000000000000000000000000900402179055509050506001600081548092919060010191905055506001915050919050565b60606040519081016040528060008152602001600073ffffffffffffffffffffffffffffffffffffffff16815260200160007effffffffffffffffffffffffffffffffffffffffffffffffffffffffffffff19168152509056fea165627a7a72305820222c3e1b5af152099708582ab9458374bee66dc45d6758acf99f50ec6ac494b00029",
  "source": "pragma solidity >=0.4.21 <0.6.0;\r\n\r\ncontract Lottery {\r\n\r\n    struct BetInfo {\r\n        uint256 answerBlockNumber;\r\n        address payable betPerson;\r\n        byte challenges;\r\n    }\r\n\r\n    uint256 private head;\r\n    uint256 private tail;\r\n    mapping(uint256=>BetInfo) private betInfoMap;\r\n\r\n    address public owner;\r\n\r\n    uint256 constant internal BET_AMOUNT = 5 * 10 ** 15;\r\n    uint256 constant internal BLOCK_INTERVAL = 3;\r\n    uint256 constant internal BLOCK_LIMIT = 256;\r\n\r\n    uint256 private pot;\r\n\r\n    enum BlockStatus {BEHIND_BLOCK_LIMIT, ON_THE_BLOCK, OVER_THE_BLOCK, UNKNOWN_STATUS}\r\n    enum BettingResult {WIN, LOSE, DRAW}\r\n\r\n    event BET(uint256 index, address betPerson,uint256 amount, uint256 answerBlockNumber, byte challenges);\r\n\r\n    constructor() public {\r\n        owner = msg.sender;\r\n    }\r\n\r\n    function getValue() public pure returns (uint256 value){\r\n        return 5;\r\n    }\r\n\r\n    function getPot() public view returns (uint256 potValue) {\r\n        return pot;\r\n    }\r\n\r\n    /**\r\n    @dev 배팅을 하고 , 이더 보내고, 해쉬값 보낸다.\r\n    @param challenges 유저입력해쉬 \r\n    @return 함수 수행여부에 따른 boolean\r\n     */\r\n    function bet(byte challenges) public payable returns (bool result) {\r\n        require(msg.value == BET_AMOUNT, 'not enough ETH');\r\n        require(pushBet(challenges), 'cant pushBet');\r\n        emit BET(tail-1, msg.sender,msg.value, block.number+BLOCK_INTERVAL, challenges);\r\n\r\n        return true;\r\n    }\r\n\r\n    /**distribute bet ETH by result */\r\n    function distribute() public {\r\n        uint256 flag;\r\n        BetInfo memory b;\r\n        BlockStatus currentStatus;\r\n\r\n        for(flag=head;flag<tail;flag++){\r\n            b = betInfoMap[flag];\r\n            currentStatus = getBlockStatus(b.answerBlockNumber);\r\n\r\n            if(currentStatus == BlockStatus.BEHIND_BLOCK_LIMIT) {\r\n                //refund\r\n                //emit refund event\r\n            } else if(currentStatus == BlockStatus.ON_THE_BLOCK) {\r\n                // win => get pot money\r\n\r\n                // lose => pay pot money\r\n\r\n                // draw => refund bet money\r\n\r\n            } else if(currentStatus == BlockStatus.OVER_THE_BLOCK) {\r\n                break;\r\n            }\r\n\r\n            popBet(flag);\r\n        }\r\n    }\r\n\r\n    /** check between challenge and hashnumber*/\r\n    function isMatch(byte challenges, bytes32 answer) public pure returns (BettingResult) {\r\n\r\n        byte c1 = challenges;\r\n        byte c2 = challenges;\r\n\r\n        c1 = c1 >> 4;    //0x0a\r\n        c1 = c1 << 4;    //0xa0    \r\n\r\n        c2 = c2 << 4;    //0xb0\r\n        c2 = c2 >> 4;    //0x0b  \r\n\r\n        byte a1 = answer[0];\r\n        byte a2 = answer[0];    \r\n\r\n        a1 = a1 >> 4;\r\n        a1 = a1 << 4;  \r\n\r\n        a2 = a2 << 4;\r\n        a2 = a2 >> 4;      \r\n\r\n        if(a1 == c1 && a2 == c2) {\r\n            return BettingResult.WIN;\r\n        } else if(a1 == c1 || a2 == c2) {\r\n            return BettingResult.DRAW;\r\n        }\r\n        return BettingResult.LOSE;\r\n    }\r\n\r\n    /**\r\n    BEHIND_BLOCK_LIMIT => refund\r\n    ON_THE_BLOCK => bet\r\n    OVER_THE_BLOCK=> cancel\r\n     */\r\n    function getBlockStatus(uint256 answerBlockNumber) public view returns (BlockStatus){\r\n        if(answerBlockNumber < block.number - BLOCK_LIMIT) {\r\n            return BlockStatus.BEHIND_BLOCK_LIMIT;\r\n        } else if(answerBlockNumber >= block.number - BLOCK_LIMIT && answerBlockNumber < block.number) {\r\n            return BlockStatus.ON_THE_BLOCK;\r\n        } else if(answerBlockNumber >= block.number) {\r\n            return BlockStatus.OVER_THE_BLOCK;\r\n        }\r\n        return BlockStatus.UNKNOWN_STATUS; // prevent unexpected error\r\n    }\r\n\r\n    function getBetInfo(uint256 index) public view returns (uint256 answerBlockNumber, address betPerson, byte challenges) {\r\n        BetInfo memory b = betInfoMap[index];\r\n        answerBlockNumber = b.answerBlockNumber;\r\n        betPerson = b.betPerson;\r\n        challenges = b.challenges;\r\n    }\r\n\r\n    // start bet queue\r\n    function pushBet(byte challenges) internal returns (bool){\r\n        BetInfo memory b;\r\n\r\n        b.answerBlockNumber = block.number + BLOCK_INTERVAL;\r\n        b.betPerson = msg.sender;\r\n        b.challenges = challenges;\r\n\r\n        betInfoMap[tail] = b;\r\n        tail++;\r\n\r\n        return true;\r\n    }\r\n\r\n    // end bet queue\r\n    function popBet(uint256 index) public returns (bool){\r\n        delete betInfoMap[index];\r\n        \r\n        return true;   \r\n    }\r\n}",
  "sourcePath": "C:/lottery-smartcontract/contracts/Lottery.sol",
  "compiler": {
    "name": "solc",
    "version": "0.5.0+commit.1d4f565a.Emscripten.clang"
  },
  "schemaVersion": "3.0.1",
  "updatedAt": "2019-06-18T07:06:44.739Z",
  "devdoc": {
    "methods": {
      "bet(bytes1)": {
        "details": "배팅을 하고 , 이더 보내고, 해쉬값 보낸다.\r",
        "params": {
          "challenges": "유저입력해쉬 \r"
        },
        "return": "함수 수행여부에 따른 boolean\r"
      }
    }
  },
  "userdoc": {
    "methods": {
      "distribute()": {
        "notice": "distribute bet ETH by result "
      },
      "getBlockStatus(uint256)": {
        "notice": "BEHIND_BLOCK_LIMIT => refund\r ON_THE_BLOCK => bet\r OVER_THE_BLOCK=> cancel\r"
      },
      "isMatch(bytes1,bytes32)": {
        "notice": "check between challenge and hashnumber"
      }
    }
  }
}