{
  "contractName": "Lottery",
  "abi": [
    {
      "constant": true,
      "inputs": [],
      "name": "answerForTest",
      "outputs": [
        {
          "name": "",
          "type": "bytes32"
        }
      ],
      "payable": false,
      "stateMutability": "view",
      "type": "function"
    },
    {
      "constant": true,
      "inputs": [],
      "name": "owner",
      "outputs": [
        {
          "name": "",
          "type": "address"
        }
      ],
      "payable": false,
      "stateMutability": "view",
      "type": "function"
    },
    {
      "inputs": [],
      "payable": false,
      "stateMutability": "nonpayable",
      "type": "constructor"
    },
    {
      "anonymous": false,
      "inputs": [
        {
          "indexed": false,
          "name": "index",
          "type": "uint256"
        },
        {
          "indexed": false,
          "name": "betPerson",
          "type": "address"
        },
        {
          "indexed": false,
          "name": "amount",
          "type": "uint256"
        },
        {
          "indexed": false,
          "name": "challenges",
          "type": "bytes1"
        },
        {
          "indexed": false,
          "name": "answerBlockNumber",
          "type": "uint256"
        }
      ],
      "name": "BET",
      "type": "event"
    },
    {
      "anonymous": false,
      "inputs": [
        {
          "indexed": false,
          "name": "index",
          "type": "uint256"
        },
        {
          "indexed": false,
          "name": "betPerson",
          "type": "address"
        },
        {
          "indexed": false,
          "name": "amount",
          "type": "uint256"
        },
        {
          "indexed": false,
          "name": "challenges",
          "type": "bytes1"
        },
        {
          "indexed": false,
          "name": "answer",
          "type": "bytes1"
        },
        {
          "indexed": false,
          "name": "answerBlockNumber",
          "type": "uint256"
        }
      ],
      "name": "WIN",
      "type": "event"
    },
    {
      "anonymous": false,
      "inputs": [
        {
          "indexed": false,
          "name": "index",
          "type": "uint256"
        },
        {
          "indexed": false,
          "name": "betPerson",
          "type": "address"
        },
        {
          "indexed": false,
          "name": "amount",
          "type": "uint256"
        },
        {
          "indexed": false,
          "name": "challenges",
          "type": "bytes1"
        },
        {
          "indexed": false,
          "name": "answer",
          "type": "bytes1"
        },
        {
          "indexed": false,
          "name": "answerBlockNumber",
          "type": "uint256"
        }
      ],
      "name": "LOSE",
      "type": "event"
    },
    {
      "anonymous": false,
      "inputs": [
        {
          "indexed": false,
          "name": "index",
          "type": "uint256"
        },
        {
          "indexed": false,
          "name": "betPerson",
          "type": "address"
        },
        {
          "indexed": false,
          "name": "amount",
          "type": "uint256"
        },
        {
          "indexed": false,
          "name": "challenges",
          "type": "bytes1"
        },
        {
          "indexed": false,
          "name": "answer",
          "type": "bytes1"
        },
        {
          "indexed": false,
          "name": "answerBlockNumber",
          "type": "uint256"
        }
      ],
      "name": "DRAW",
      "type": "event"
    },
    {
      "anonymous": false,
      "inputs": [
        {
          "indexed": false,
          "name": "index",
          "type": "uint256"
        },
        {
          "indexed": false,
          "name": "betPerson",
          "type": "address"
        },
        {
          "indexed": false,
          "name": "amount",
          "type": "uint256"
        },
        {
          "indexed": false,
          "name": "challenges",
          "type": "bytes1"
        },
        {
          "indexed": false,
          "name": "answerBlockNumber",
          "type": "uint256"
        }
      ],
      "name": "REFUND",
      "type": "event"
    },
    {
      "constant": true,
      "inputs": [],
      "name": "getPot",
      "outputs": [
        {
          "name": "potValue",
          "type": "uint256"
        }
      ],
      "payable": false,
      "stateMutability": "view",
      "type": "function"
    },
    {
      "constant": false,
      "inputs": [
        {
          "name": "challenges",
          "type": "bytes1"
        }
      ],
      "name": "bet",
      "outputs": [
        {
          "name": "result",
          "type": "bool"
        }
      ],
      "payable": true,
      "stateMutability": "payable",
      "type": "function"
    },
    {
      "constant": false,
      "inputs": [],
      "name": "distribute",
      "outputs": [],
      "payable": false,
      "stateMutability": "nonpayable",
      "type": "function"
    },
    {
      "constant": false,
      "inputs": [
        {
          "name": "challenges",
          "type": "bytes1"
        }
      ],
      "name": "betAndDistribute",
      "outputs": [
        {
          "name": "result",
          "type": "bool"
        }
      ],
      "payable": true,
      "stateMutability": "payable",
      "type": "function"
    },
    {
      "constant": true,
      "inputs": [
        {
          "name": "challenges",
          "type": "bytes1"
        },
        {
          "name": "answer",
          "type": "bytes32"
        }
      ],
      "name": "isMatch",
      "outputs": [
        {
          "name": "",
          "type": "uint8"
        }
      ],
      "payable": false,
      "stateMutability": "pure",
      "type": "function"
    },
    {
      "constant": true,
      "inputs": [
        {
          "name": "answerBlockNumber",
          "type": "uint256"
        }
      ],
      "name": "getBlockStatus",
      "outputs": [
        {
          "name": "",
          "type": "uint8"
        }
      ],
      "payable": false,
      "stateMutability": "view",
      "type": "function"
    },
    {
      "constant": true,
      "inputs": [
        {
          "name": "index",
          "type": "uint256"
        }
      ],
      "name": "getBetInfo",
      "outputs": [
        {
          "name": "answerBlockNumber",
          "type": "uint256"
        },
        {
          "name": "betPerson",
          "type": "address"
        },
        {
          "name": "challenges",
          "type": "bytes1"
        }
      ],
      "payable": false,
      "stateMutability": "view",
      "type": "function"
    },
    {
      "constant": false,
      "inputs": [
        {
          "name": "index",
          "type": "uint256"
        }
      ],
      "name": "popBet",
      "outputs": [
        {
          "name": "",
          "type": "bool"
        }
      ],
      "payable": false,
      "stateMutability": "nonpayable",
      "type": "function"
    }
  ],
  "bytecode": "0x608060405234801561001057600080fd5b5033600360006101000a81548173ffffffffffffffffffffffffffffffffffffffff021916908373ffffffffffffffffffffffffffffffffffffffff1602179055506115c9806100616000396000f3fe6080604052600436106100a4576000357c0100000000000000000000000000000000000000000000000000000000900463ffffffff168063403c9fa8146100a957806379141f80146100d457806384f7e4f0146101a15780638da5cb5b146101cc57806399a167d714610223578063a388c0e9146102ac578063d04c9a8c14610309578063e16ea8571461035c578063e4fc6b6d146103c4578063f4b46f5b146103db575b600080fd5b3480156100b557600080fd5b506100be610443565b6040518082815260200191505060405180910390f35b3480156100e057600080fd5b5061010d600480360360208110156100f757600080fd5b810190808035906020019092919050505061044d565b604051808481526020018373ffffffffffffffffffffffffffffffffffffffff1673ffffffffffffffffffffffffffffffffffffffff168152602001827effffffffffffffffffffffffffffffffffffffffffffffffffffffffffffff19167effffffffffffffffffffffffffffffffffffffffffffffffffffffffffffff19168152602001935050505060405180910390f35b3480156101ad57600080fd5b506101b6610572565b6040518082815260200191505060405180910390f35b3480156101d857600080fd5b506101e1610578565b604051808273ffffffffffffffffffffffffffffffffffffffff1673ffffffffffffffffffffffffffffffffffffffff16815260200191505060405180910390f35b34801561022f57600080fd5b506102886004803603604081101561024657600080fd5b8101908080357effffffffffffffffffffffffffffffffffffffffffffffffffffffffffffff191690602001909291908035906020019092919050505061059e565b6040518082600281111561029857fe5b60ff16815260200191505060405180910390f35b3480156102b857600080fd5b506102e5600480360360208110156102cf57600080fd5b81019080803590602001909291905050506108e7565b604051808260038111156102f557fe5b60ff16815260200191505060405180910390f35b34801561031557600080fd5b506103426004803603602081101561032c57600080fd5b810190808035906020019092919050505061093b565b604051808215151515815260200191505060405180910390f35b6103aa6004803603602081101561037257600080fd5b8101908080357effffffffffffffffffffffffffffffffffffffffffffffffffffffffffffff1916906020019092919050505061099f565b604051808215151515815260200191505060405180910390f35b3480156103d057600080fd5b506103d96109bc565b005b610429600480360360208110156103f157600080fd5b8101908080357effffffffffffffffffffffffffffffffffffffffffffffffffffffffffffff1916906020019092919050505061112f565b604051808215151515815260200191505060405180910390f35b6000600554905090565b600080600061045a611543565b6002600086815260200190815260200160002060606040519081016040529081600082015481526020016001820160009054906101000a900473ffffffffffffffffffffffffffffffffffffffff1673ffffffffffffffffffffffffffffffffffffffff1673ffffffffffffffffffffffffffffffffffffffff1681526020016001820160149054906101000a90047f0100000000000000000000000000000000000000000000000000000000000000027effffffffffffffffffffffffffffffffffffffffffffffffffffffffffffff19167effffffffffffffffffffffffffffffffffffffffffffffffffffffffffffff1916815250509050806000015193508060200151925080604001519150509193909250565b60045481565b600360009054906101000a900473ffffffffffffffffffffffffffffffffffffffff1681565b60008083905060008490506004827effffffffffffffffffffffffffffffffffffffffffffffffffffffffffffff1916908060020a820491505091506004827effffffffffffffffffffffffffffffffffffffffffffffffffffffffffffff19169060020a0291506004817effffffffffffffffffffffffffffffffffffffffffffffffffffffffffffff19169060020a0290506004817effffffffffffffffffffffffffffffffffffffffffffffffffffffffffffff1916908060020a82049150509050600084600060208110151561067457fe5b1a7f010000000000000000000000000000000000000000000000000000000000000002905060008560006020811015156106aa57fe5b1a7f01000000000000000000000000000000000000000000000000000000000000000290506004827effffffffffffffffffffffffffffffffffffffffffffffffffffffffffffff1916908060020a820491505091506004827effffffffffffffffffffffffffffffffffffffffffffffffffffffffffffff19169060020a0291506004817effffffffffffffffffffffffffffffffffffffffffffffffffffffffffffff19169060020a0290506004817effffffffffffffffffffffffffffffffffffffffffffffffffffffffffffff1916908060020a82049150509050837effffffffffffffffffffffffffffffffffffffffffffffffffffffffffffff1916827effffffffffffffffffffffffffffffffffffffffffffffffffffffffffffff191614801561081f5750827effffffffffffffffffffffffffffffffffffffffffffffffffffffffffffff1916817effffffffffffffffffffffffffffffffffffffffffffffffffffffffffffff1916145b156108315760009450505050506108e1565b837effffffffffffffffffffffffffffffffffffffffffffffffffffffffffffff1916827effffffffffffffffffffffffffffffffffffffffffffffffffffffffffffff191614806108c65750827effffffffffffffffffffffffffffffffffffffffffffffffffffffffffffff1916817effffffffffffffffffffffffffffffffffffffffffffffffffffffffffffff1916145b156108d85760029450505050506108e1565b60019450505050505b92915050565b600061010043038210156108fe5760009050610936565b6101004303821015801561091157504382105b1561091f5760019050610936565b43821015156109315760029050610936565b600390505b919050565b6000600260008381526020019081526020016000206000808201600090556001820160006101000a81549073ffffffffffffffffffffffffffffffffffffffff02191690556001820160146101000a81549060ff0219169055505060019050919050565b60006109aa8261112f565b506109b36109bc565b60019050919050565b6000806109c7611543565b60008060005494505b600154851015611121576002600086815260200190815260200160002060606040519081016040529081600082015481526020016001820160009054906101000a900473ffffffffffffffffffffffffffffffffffffffff1673ffffffffffffffffffffffffffffffffffffffff1673ffffffffffffffffffffffffffffffffffffffff1681526020016001820160149054906101000a90047f0100000000000000000000000000000000000000000000000000000000000000027effffffffffffffffffffffffffffffffffffffffffffffffffffffffffffff19167effffffffffffffffffffffffffffffffffffffffffffffffffffffffffffff1916815250509250610ae283600001516108e7565b91506000610af38460000151611303565b905060006003811115610b0257fe5b836003811115610b0e57fe5b1415610c0357610b2984602001516611c37937e0800061132b565b94507f59c0185881271a0f53d43e6ab9310091408f9e0ff9ae2512613de800f26b8de48685602001518787604001518860000151604051808681526020018573ffffffffffffffffffffffffffffffffffffffff1673ffffffffffffffffffffffffffffffffffffffff168152602001848152602001837effffffffffffffffffffffffffffffffffffffffffffffffffffffffffffff19167effffffffffffffffffffffffffffffffffffffffffffffffffffffffffffff191681526020018281526020019550505050505060405180910390a1611109565b60026003811115610c1057fe5b836003811115610c1c57fe5b1415610c285750611121565b60016003811115610c3557fe5b836003811115610c4157fe5b141561110857610c5584604001518261059e565b915060006002811115610c6457fe5b826002811115610c7057fe5b1415610df357610c9484602001516611c37937e08000610c8e610443565b0161132b565b945060006005819055507f8219079e2d6c1192fb0ff7f78e6faaf5528ad6687e69749205d87bd4b156912b868560200151878760400151856000602081101515610cda57fe5b1a7f0100000000000000000000000000000000000000000000000000000000000000028960000151604051808781526020018673ffffffffffffffffffffffffffffffffffffffff1673ffffffffffffffffffffffffffffffffffffffff168152602001858152602001847effffffffffffffffffffffffffffffffffffffffffffffffffffffffffffff19167effffffffffffffffffffffffffffffffffffffffffffffffffffffffffffff19168152602001837effffffffffffffffffffffffffffffffffffffffffffffffffffffffffffff19167effffffffffffffffffffffffffffffffffffffffffffffffffffffffffffff19168152602001828152602001965050505050505060405180910390a1611107565b60016002811115610e0057fe5b826002811115610e0c57fe5b1415610f7f576611c37937e080006005600082825401925050819055507f857de42f5f3a8f5de6cedde05ecd2843e3d33c293b4a75322a56e345f8bc75b486856020015160008760400151856000602081101515610e6657fe5b1a7f0100000000000000000000000000000000000000000000000000000000000000028960000151604051808781526020018673ffffffffffffffffffffffffffffffffffffffff1673ffffffffffffffffffffffffffffffffffffffff168152602001858152602001847effffffffffffffffffffffffffffffffffffffffffffffffffffffffffffff19167effffffffffffffffffffffffffffffffffffffffffffffffffffffffffffff19168152602001837effffffffffffffffffffffffffffffffffffffffffffffffffffffffffffff19167effffffffffffffffffffffffffffffffffffffffffffffffffffffffffffff19168152602001828152602001965050505050505060405180910390a1611106565b600280811115610f8b57fe5b826002811115610f9757fe5b141561110557610fb284602001516611c37937e0800061132b565b94507f72ec2e949e4fad9380f9d5db3e2ed0e71cf22c51d8d66424508bdc761a3f4b0e868560200151878760400151856000602081101515610ff057fe5b1a7f0100000000000000000000000000000000000000000000000000000000000000028960000151604051808781526020018673ffffffffffffffffffffffffffffffffffffffff1673ffffffffffffffffffffffffffffffffffffffff168152602001858152602001847effffffffffffffffffffffffffffffffffffffffffffffffffffffffffffff19167effffffffffffffffffffffffffffffffffffffffffffffffffffffffffffff19168152602001837effffffffffffffffffffffffffffffffffffffffffffffffffffffffffffff19167effffffffffffffffffffffffffffffffffffffffffffffffffffffffffffff19168152602001828152602001965050505050505060405180910390a15b5b5b5b5b6111128661093b565b505084806001019550506109d0565b846000819055505050505050565b60006611c37937e08000341415156111af576040517f08c379a000000000000000000000000000000000000000000000000000000000815260040180806020018281038252600e8152602001807f6e6f7420656e6f7567682045544800000000000000000000000000000000000081525060200191505060405180910390fd5b6111b8826113dd565b151561122c576040517f08c379a000000000000000000000000000000000000000000000000000000000815260040180806020018281038252600c8152602001807f63616e742070757368426574000000000000000000000000000000000000000081525060200191505060405180910390fd5b7f100791de9f40bf2d56ffa6dc5597d2fd0b2703ea70bc7548cd74c04f5d215ab7600180540333348560034301604051808681526020018573ffffffffffffffffffffffffffffffffffffffff1673ffffffffffffffffffffffffffffffffffffffff168152602001848152602001837effffffffffffffffffffffffffffffffffffffffffffffffffffffffffffff19167effffffffffffffffffffffffffffffffffffffffffffffffffffffffffffff191681526020018281526020019550505050505060405180910390a160019050919050565b6000600360149054906101000a900460ff1661132157600454611324565b81405b9050919050565b60008060648381151561133a57fe5b049050600081840390508473ffffffffffffffffffffffffffffffffffffffff166108fc829081150290604051600060405180830381858888f1935050505015801561138a573d6000803e3d6000fd5b503373ffffffffffffffffffffffffffffffffffffffff166108fc839081150290604051600060405180830381858888f193505050501580156113d1573d6000803e3d6000fd5b50809250505092915050565b60006113e7611543565b6003430181600001818152505033816020019073ffffffffffffffffffffffffffffffffffffffff16908173ffffffffffffffffffffffffffffffffffffffff16815250508281604001907effffffffffffffffffffffffffffffffffffffffffffffffffffffffffffff191690817effffffffffffffffffffffffffffffffffffffffffffffffffffffffffffff191681525050806002600060015481526020019081526020016000206000820151816000015560208201518160010160006101000a81548173ffffffffffffffffffffffffffffffffffffffff021916908373ffffffffffffffffffffffffffffffffffffffff16021790555060408201518160010160146101000a81548160ff02191690837f0100000000000000000000000000000000000000000000000000000000000000900402179055509050506001600081548092919060010191905055506001915050919050565b60606040519081016040528060008152602001600073ffffffffffffffffffffffffffffffffffffffff16815260200160007effffffffffffffffffffffffffffffffffffffffffffffffffffffffffffff19168152509056fea165627a7a72305820ff161b12c9e233672bf374337f02525cc3910f3aa7912b266be05b1c7bb9dea20029",
  "source": "pragma solidity >=0.4.21 <0.6.0;\r\n\r\ncontract Lottery {\r\n\r\n    struct BetInfo {\r\n        uint256 answerBlockNumber;\r\n        address payable betPerson;\r\n        byte challenges;\r\n    }\r\n\r\n    uint256 private head;\r\n    uint256 private tail;\r\n    mapping(uint256=>BetInfo) private betInfoMap;\r\n\r\n    address public owner;\r\n    bool private mode; // false : test mode, true : real use\r\n    bytes32 public answerForTest;\r\n\r\n    uint256 constant internal BET_AMOUNT = 5 * 10 ** 15;\r\n    uint256 constant internal BLOCK_INTERVAL = 3;\r\n    uint256 constant internal BLOCK_LIMIT = 256;\r\n\r\n    uint256 private pot;\r\n\r\n    enum BlockStatus {BEHIND_BLOCK_LIMIT, ON_THE_BLOCK, OVER_THE_BLOCK, UNKNOWN_STATUS}\r\n    enum BettingResult {WIN, LOSE, DRAW}\r\n\r\n    event BET(uint256 index, address betPerson, uint256 amount, byte challenges, uint256 answerBlockNumber);\r\n    event WIN(uint256 index, address betPerson, uint256 amount, byte challenges, byte answer, uint256 answerBlockNumber);\r\n    event LOSE(uint256 index, address betPerson, uint256 amount, byte challenges, byte answer, uint256 answerBlockNumber);\r\n    event DRAW(uint256 index, address betPerson, uint256 amount, byte challenges, byte answer, uint256 answerBlockNumber);\r\n    event REFUND(uint256 index, address betPerson, uint256 amount, byte challenges, uint256 answerBlockNumber);\r\n\r\n    constructor() public {\r\n        owner = msg.sender;\r\n    }\r\n\r\n    function getPot() public view returns (uint256 potValue) {\r\n        return pot;\r\n    }\r\n\r\n    /**\r\n     * @dev 베팅을 한다. 유저는 0.005 ETH를 보내야 하고, 베팅용 1 byte 글자를 보낸다.\r\n     * 큐에 저장된 베팅 정보는 이후 distribute 함수에서 해결된다.\r\n     * @param challenges 유저가 베팅하는 글자\r\n     * @return 함수가 잘 수행되었는지 확인해는 bool 값\r\n     */\r\n    function bet(byte challenges) public payable returns (bool result) {\r\n        require(msg.value == BET_AMOUNT, 'not enough ETH');\r\n        require(pushBet(challenges), 'cant pushBet');\r\n        emit BET(tail-1, msg.sender, msg.value, challenges, block.number+BLOCK_INTERVAL);\r\n\r\n        return true;\r\n    }\r\n\r\n    /**distribute bet ETH by result */\r\n    function distribute() public {\r\n\r\n        uint256 flag;\r\n        uint256 transferAmount;\r\n\r\n        BetInfo memory b;\r\n        BlockStatus currentStatus;\r\n        BettingResult currentBettingResult;\r\n\r\n        for(flag=head;flag<tail;flag++){\r\n\r\n            b = betInfoMap[flag];\r\n            currentStatus = getBlockStatus(b.answerBlockNumber);\r\n            bytes32 answerBlockHash = getAnswerBlockHash(b.answerBlockNumber);\r\n\r\n            if(currentStatus == BlockStatus.BEHIND_BLOCK_LIMIT) {\r\n\r\n                //refund BET_AMOUNT\r\n                transferAmount = transferWithoutFee(b.betPerson, BET_AMOUNT);\r\n                emit REFUND(flag, b.betPerson, transferAmount, b.challenges, b.answerBlockNumber);\r\n\r\n            } else if(currentStatus == BlockStatus.OVER_THE_BLOCK) {\r\n\r\n                break;\r\n\r\n            } else if(currentStatus == BlockStatus.ON_THE_BLOCK) {\r\n\r\n                currentBettingResult = isMatch(b.challenges, answerBlockHash);\r\n                \r\n                if (currentBettingResult == BettingResult.WIN) {\r\n\r\n                    // transfer pot to better\r\n                    transferAmount = transferWithoutFee(b.betPerson, getPot() + BET_AMOUNT);\r\n                    //  pot = 0\r\n                    pot = 0;\r\n                    // emit Win event\r\n                    emit WIN(flag, b.betPerson, transferAmount, b.challenges, answerBlockHash[0], b.answerBlockNumber);\r\n\r\n                } else if (currentBettingResult == BettingResult.LOSE) {\r\n\r\n                    // pot += BET_AMOUNT\r\n                    pot += BET_AMOUNT;\r\n                    //emit LOSE event\r\n                    emit LOSE(flag, b.betPerson, 0, b.challenges, answerBlockHash[0], b.answerBlockNumber);\r\n\r\n                } else if (currentBettingResult == BettingResult.DRAW) {\r\n\r\n                    // transfer only BET_AMOUNT to better\r\n                    transferAmount = transferWithoutFee(b.betPerson, BET_AMOUNT);\r\n                    // emit DRAW event\r\n                    emit DRAW(flag, b.betPerson, transferAmount, b.challenges, answerBlockHash[0], b.answerBlockNumber);\r\n\r\n                }\r\n            }\r\n            popBet(flag);\r\n        }\r\n        head = flag;\r\n    }\r\n    /** take fee from transfer amount */\r\n    function transferWithoutFee(address payable addr, uint256 amount) internal returns (uint256) {\r\n        \r\n        uint256 fee = amount / 100;\r\n        uint256 amountWithoutFee = amount - fee;\r\n\r\n        // transfer to addr\r\n        addr.transfer(amountWithoutFee);\r\n\r\n        // transfer to owner\r\n        msg.sender.transfer(fee);\r\n\r\n        return amountWithoutFee;\r\n    }\r\n\r\n    //hash값은 random하기에 테스트를 위해서 임의의 해시값을 이용하여 테스트하는 모드를 구현.\r\n    function getAnswerBlockHash(uint256 answerBlockHash) internal view returns (bytes32 answer) {\r\n        return mode ? blockhash(answerBlockHash) : answerForTest;\r\n    }\r\n\r\n    function betAndDistribute(byte challenges) public payable returns (bool result){\r\n        bet(challenges);\r\n        distribute();\r\n        return true;\r\n    }\r\n\r\n    /** check between challenge and hashnumber*/\r\n    function isMatch(byte challenges, bytes32 answer) public pure returns (BettingResult) {\r\n\r\n        byte c1 = challenges;\r\n        byte c2 = challenges;\r\n\r\n        c1 = c1 >> 4;    //0x0a\r\n        c1 = c1 << 4;    //0xa0    \r\n\r\n        c2 = c2 << 4;    //0xb0\r\n        c2 = c2 >> 4;    //0x0b  \r\n\r\n        byte a1 = answer[0];\r\n        byte a2 = answer[0];    \r\n\r\n        a1 = a1 >> 4;\r\n        a1 = a1 << 4;  \r\n\r\n        a2 = a2 << 4;\r\n        a2 = a2 >> 4;      \r\n\r\n        if(a1 == c1 && a2 == c2) {\r\n            return BettingResult.WIN;\r\n        } else if(a1 == c1 || a2 == c2) {\r\n            return BettingResult.DRAW;\r\n        }\r\n        return BettingResult.LOSE;\r\n    }\r\n\r\n    /**\r\n    BEHIND_BLOCK_LIMIT => refund\r\n    ON_THE_BLOCK => bet\r\n    OVER_THE_BLOCK=> cancel\r\n     */\r\n    function getBlockStatus(uint256 answerBlockNumber) public view returns (BlockStatus){\r\n        if(answerBlockNumber < block.number - BLOCK_LIMIT) {\r\n            return BlockStatus.BEHIND_BLOCK_LIMIT;\r\n        } else if(answerBlockNumber >= block.number - BLOCK_LIMIT && answerBlockNumber < block.number) {\r\n            return BlockStatus.ON_THE_BLOCK;\r\n        } else if(answerBlockNumber >= block.number) {\r\n            return BlockStatus.OVER_THE_BLOCK;\r\n        }\r\n        return BlockStatus.UNKNOWN_STATUS; // prevent unexpected error\r\n    }\r\n\r\n    function getBetInfo(uint256 index) public view returns (uint256 answerBlockNumber, address betPerson, byte challenges) {\r\n        BetInfo memory b = betInfoMap[index];\r\n        answerBlockNumber = b.answerBlockNumber;\r\n        betPerson = b.betPerson;\r\n        challenges = b.challenges;\r\n    }\r\n\r\n    // start bet queue\r\n    function pushBet(byte challenges) internal returns (bool){\r\n        BetInfo memory b;\r\n\r\n        b.answerBlockNumber = block.number + BLOCK_INTERVAL;\r\n        b.betPerson = msg.sender;\r\n        b.challenges = challenges;\r\n\r\n        betInfoMap[tail] = b;\r\n        tail++;\r\n\r\n        return true;\r\n    }\r\n\r\n    // end bet queue\r\n    function popBet(uint256 index) public returns (bool){\r\n        delete betInfoMap[index];\r\n        \r\n        return true;   \r\n    }\r\n}",
  "sourcePath": "C:/lottery-smartcontract/contracts/Lottery.sol",
  "compiler": {
    "name": "solc",
    "version": "0.5.0+commit.1d4f565a.Emscripten.clang"
  },
  "schemaVersion": "3.0.1",
  "updatedAt": "2019-06-28T08:48:54.221Z",
  "devdoc": {
    "methods": {
      "bet(bytes1)": {
        "details": "베팅을 한다. 유저는 0.005 ETH를 보내야 하고, 베팅용 1 byte 글자를 보낸다.\r 큐에 저장된 베팅 정보는 이후 distribute 함수에서 해결된다.\r",
        "params": {
          "challenges": "유저가 베팅하는 글자\r"
        },
        "return": "함수가 잘 수행되었는지 확인해는 bool 값\r"
      }
    }
  },
  "userdoc": {
    "methods": {
      "distribute()": {
        "notice": "distribute bet ETH by result "
      },
      "getBlockStatus(uint256)": {
        "notice": "BEHIND_BLOCK_LIMIT => refund\r ON_THE_BLOCK => bet\r OVER_THE_BLOCK=> cancel\r"
      },
      "isMatch(bytes1,bytes32)": {
        "notice": "check between challenge and hashnumber"
      }
    }
  }
}