{
  "contractName": "Lottery",
  "abi": [
    {
      "constant": true,
      "inputs": [],
      "name": "owner",
      "outputs": [
        {
          "name": "",
          "type": "address"
        }
      ],
      "payable": false,
      "stateMutability": "view",
      "type": "function",
      "signature": "0x8da5cb5b"
    },
    {
      "inputs": [],
      "payable": false,
      "stateMutability": "nonpayable",
      "type": "constructor",
      "signature": "constructor"
    },
    {
      "anonymous": false,
      "inputs": [
        {
          "indexed": false,
          "name": "index",
          "type": "uint256"
        },
        {
          "indexed": false,
          "name": "betPerson",
          "type": "address"
        },
        {
          "indexed": false,
          "name": "amount",
          "type": "uint256"
        },
        {
          "indexed": false,
          "name": "answerBlockNumber",
          "type": "uint256"
        },
        {
          "indexed": false,
          "name": "challenges",
          "type": "bytes1"
        }
      ],
      "name": "BET",
      "type": "event",
      "signature": "0x9a95282c9d1697e2c96ac19443e3e62e2bad3946cd60803ad43ebd9c471d7ba4"
    },
    {
      "constant": true,
      "inputs": [],
      "name": "getValue",
      "outputs": [
        {
          "name": "value",
          "type": "uint256"
        }
      ],
      "payable": false,
      "stateMutability": "pure",
      "type": "function",
      "signature": "0x20965255"
    },
    {
      "constant": true,
      "inputs": [],
      "name": "getPot",
      "outputs": [
        {
          "name": "potValue",
          "type": "uint256"
        }
      ],
      "payable": false,
      "stateMutability": "view",
      "type": "function",
      "signature": "0x403c9fa8"
    },
    {
      "constant": false,
      "inputs": [
        {
          "name": "challenges",
          "type": "bytes1"
        }
      ],
      "name": "bet",
      "outputs": [
        {
          "name": "result",
          "type": "bool"
        }
      ],
      "payable": true,
      "stateMutability": "payable",
      "type": "function",
      "signature": "0xf4b46f5b"
    },
    {
      "constant": false,
      "inputs": [],
      "name": "distribute",
      "outputs": [],
      "payable": false,
      "stateMutability": "nonpayable",
      "type": "function",
      "signature": "0xe4fc6b6d"
    },
    {
      "constant": false,
      "inputs": [
        {
          "name": "chall",
          "type": "bytes1"
        }
      ],
      "name": "betAndDistribute",
      "outputs": [
        {
          "name": "",
          "type": "bool"
        }
      ],
      "payable": true,
      "stateMutability": "payable",
      "type": "function",
      "signature": "0xe16ea857"
    },
    {
      "constant": true,
      "inputs": [
        {
          "name": "challenges",
          "type": "bytes1"
        },
        {
          "name": "answer",
          "type": "bytes32"
        }
      ],
      "name": "isMatch",
      "outputs": [
        {
          "name": "",
          "type": "uint8"
        }
      ],
      "payable": false,
      "stateMutability": "pure",
      "type": "function",
      "signature": "0x99a167d7"
    },
    {
      "constant": true,
      "inputs": [
        {
          "name": "answerBlockNumber",
          "type": "uint256"
        }
      ],
      "name": "getBlockStatus",
      "outputs": [
        {
          "name": "",
          "type": "uint8"
        }
      ],
      "payable": false,
      "stateMutability": "view",
      "type": "function",
      "signature": "0xa388c0e9"
    },
    {
      "constant": true,
      "inputs": [
        {
          "name": "index",
          "type": "uint256"
        }
      ],
      "name": "getBetInfo",
      "outputs": [
        {
          "name": "answerBlockNumber",
          "type": "uint256"
        },
        {
          "name": "betPerson",
          "type": "address"
        },
        {
          "name": "challenges",
          "type": "bytes1"
        }
      ],
      "payable": false,
      "stateMutability": "view",
      "type": "function",
      "signature": "0x79141f80"
    },
    {
      "constant": false,
      "inputs": [
        {
          "name": "index",
          "type": "uint256"
        }
      ],
      "name": "popBet",
      "outputs": [
        {
          "name": "",
          "type": "bool"
        }
      ],
      "payable": false,
      "stateMutability": "nonpayable",
      "type": "function",
      "signature": "0xd04c9a8c"
    }
  ],
  "bytecode": "0x608060405234801561001057600080fd5b5033600360006101000a81548173ffffffffffffffffffffffffffffffffffffffff021916908373ffffffffffffffffffffffffffffffffffffffff160217905550610f2e806100616000396000f3fe6080604052600436106100a4576000357c0100000000000000000000000000000000000000000000000000000000900463ffffffff16806320965255146100a9578063403c9fa8146100d457806379141f80146100ff5780638da5cb5b146101cc57806399a167d714610223578063a388c0e9146102ac578063d04c9a8c14610309578063e16ea8571461035c578063e4fc6b6d146103c4578063f4b46f5b146103db575b600080fd5b3480156100b557600080fd5b506100be610443565b6040518082815260200191505060405180910390f35b3480156100e057600080fd5b506100e961044c565b6040518082815260200191505060405180910390f35b34801561010b57600080fd5b506101386004803603602081101561012257600080fd5b8101908080359060200190929190505050610456565b604051808481526020018373ffffffffffffffffffffffffffffffffffffffff1673ffffffffffffffffffffffffffffffffffffffff168152602001827effffffffffffffffffffffffffffffffffffffffffffffffffffffffffffff19167effffffffffffffffffffffffffffffffffffffffffffffffffffffffffffff19168152602001935050505060405180910390f35b3480156101d857600080fd5b506101e161057b565b604051808273ffffffffffffffffffffffffffffffffffffffff1673ffffffffffffffffffffffffffffffffffffffff16815260200191505060405180910390f35b34801561022f57600080fd5b506102886004803603604081101561024657600080fd5b8101908080357effffffffffffffffffffffffffffffffffffffffffffffffffffffffffffff19169060200190929190803590602001909291905050506105a1565b6040518082600281111561029857fe5b60ff16815260200191505060405180910390f35b3480156102b857600080fd5b506102e5600480360360208110156102cf57600080fd5b81019080803590602001909291905050506108ea565b604051808260038111156102f557fe5b60ff16815260200191505060405180910390f35b34801561031557600080fd5b506103426004803603602081101561032c57600080fd5b810190808035906020019092919050505061093e565b604051808215151515815260200191505060405180910390f35b6103aa6004803603602081101561037257600080fd5b8101908080357effffffffffffffffffffffffffffffffffffffffffffffffffffffffffffff191690602001909291905050506109a2565b604051808215151515815260200191505060405180910390f35b3480156103d057600080fd5b506103d96109bf565b005b610429600480360360208110156103f157600080fd5b8101908080357effffffffffffffffffffffffffffffffffffffffffffffffffffffffffffff19169060200190929190505050610b6e565b604051808215151515815260200191505060405180910390f35b60006005905090565b6000600454905090565b6000806000610463610ea8565b6002600086815260200190815260200160002060606040519081016040529081600082015481526020016001820160009054906101000a900473ffffffffffffffffffffffffffffffffffffffff1673ffffffffffffffffffffffffffffffffffffffff1673ffffffffffffffffffffffffffffffffffffffff1681526020016001820160149054906101000a90047f0100000000000000000000000000000000000000000000000000000000000000027effffffffffffffffffffffffffffffffffffffffffffffffffffffffffffff19167effffffffffffffffffffffffffffffffffffffffffffffffffffffffffffff1916815250509050806000015193508060200151925080604001519150509193909250565b600360009054906101000a900473ffffffffffffffffffffffffffffffffffffffff1681565b60008083905060008490506004827effffffffffffffffffffffffffffffffffffffffffffffffffffffffffffff1916908060020a820491505091506004827effffffffffffffffffffffffffffffffffffffffffffffffffffffffffffff19169060020a0291506004817effffffffffffffffffffffffffffffffffffffffffffffffffffffffffffff19169060020a0290506004817effffffffffffffffffffffffffffffffffffffffffffffffffffffffffffff1916908060020a82049150509050600084600060208110151561067757fe5b1a7f010000000000000000000000000000000000000000000000000000000000000002905060008560006020811015156106ad57fe5b1a7f01000000000000000000000000000000000000000000000000000000000000000290506004827effffffffffffffffffffffffffffffffffffffffffffffffffffffffffffff1916908060020a820491505091506004827effffffffffffffffffffffffffffffffffffffffffffffffffffffffffffff19169060020a0291506004817effffffffffffffffffffffffffffffffffffffffffffffffffffffffffffff19169060020a0290506004817effffffffffffffffffffffffffffffffffffffffffffffffffffffffffffff1916908060020a82049150509050837effffffffffffffffffffffffffffffffffffffffffffffffffffffffffffff1916827effffffffffffffffffffffffffffffffffffffffffffffffffffffffffffff19161480156108225750827effffffffffffffffffffffffffffffffffffffffffffffffffffffffffffff1916817effffffffffffffffffffffffffffffffffffffffffffffffffffffffffffff1916145b156108345760009450505050506108e4565b837effffffffffffffffffffffffffffffffffffffffffffffffffffffffffffff1916827effffffffffffffffffffffffffffffffffffffffffffffffffffffffffffff191614806108c95750827effffffffffffffffffffffffffffffffffffffffffffffffffffffffffffff1916817effffffffffffffffffffffffffffffffffffffffffffffffffffffffffffff1916145b156108db5760029450505050506108e4565b60019450505050505b92915050565b600061010043038210156109015760009050610939565b6101004303821015801561091457504382105b156109225760019050610939565b43821015156109345760029050610939565b600390505b919050565b6000600260008381526020019081526020016000206000808201600090556001820160006101000a81549073ffffffffffffffffffffffffffffffffffffffff02191690556001820160146101000a81549060ff0219169055505060019050919050565b60006109ad82610b6e565b506109b66109bf565b60019050919050565b60006109c9610ea8565b6000805492505b600154831015610b69576002600084815260200190815260200160002060606040519081016040529081600082015481526020016001820160009054906101000a900473ffffffffffffffffffffffffffffffffffffffff1673ffffffffffffffffffffffffffffffffffffffff1673ffffffffffffffffffffffffffffffffffffffff1681526020016001820160149054906101000a90047f0100000000000000000000000000000000000000000000000000000000000000027effffffffffffffffffffffffffffffffffffffffffffffffffffffffffffff19167effffffffffffffffffffffffffffffffffffffffffffffffffffffffffffff1916815250509150610ae282600001516108ea565b905060006003811115610af157fe5b816003811115610afd57fe5b1415610b0857610b52565b60016003811115610b1557fe5b816003811115610b2157fe5b1415610b2c57610b51565b60026003811115610b3957fe5b816003811115610b4557fe5b1415610b5057610b69565b5b5b610b5b8361093e565b5082806001019350506109d0565b505050565b60006611c37937e0800034141515610bee576040517f08c379a000000000000000000000000000000000000000000000000000000000815260040180806020018281038252600e8152602001807f6e6f7420656e6f7567682045544800000000000000000000000000000000000081525060200191505060405180910390fd5b610bf782610d42565b1515610c6b576040517f08c379a000000000000000000000000000000000000000000000000000000000815260040180806020018281038252600c8152602001807f63616e742070757368426574000000000000000000000000000000000000000081525060200191505060405180910390fd5b7f9a95282c9d1697e2c96ac19443e3e62e2bad3946cd60803ad43ebd9c471d7ba4600180540333346003430186604051808681526020018573ffffffffffffffffffffffffffffffffffffffff1673ffffffffffffffffffffffffffffffffffffffff168152602001848152602001838152602001827effffffffffffffffffffffffffffffffffffffffffffffffffffffffffffff19167effffffffffffffffffffffffffffffffffffffffffffffffffffffffffffff191681526020019550505050505060405180910390a160019050919050565b6000610d4c610ea8565b6003430181600001818152505033816020019073ffffffffffffffffffffffffffffffffffffffff16908173ffffffffffffffffffffffffffffffffffffffff16815250508281604001907effffffffffffffffffffffffffffffffffffffffffffffffffffffffffffff191690817effffffffffffffffffffffffffffffffffffffffffffffffffffffffffffff191681525050806002600060015481526020019081526020016000206000820151816000015560208201518160010160006101000a81548173ffffffffffffffffffffffffffffffffffffffff021916908373ffffffffffffffffffffffffffffffffffffffff16021790555060408201518160010160146101000a81548160ff02191690837f0100000000000000000000000000000000000000000000000000000000000000900402179055509050506001600081548092919060010191905055506001915050919050565b60606040519081016040528060008152602001600073ffffffffffffffffffffffffffffffffffffffff16815260200160007effffffffffffffffffffffffffffffffffffffffffffffffffffffffffffff19168152509056fea165627a7a723058204974fc86c77da397dc532c0b512aa660985bd8a4862f1315bc8377493a7457870029",
  "source": "pragma solidity >=0.4.21 <0.6.0;\r\n\r\ncontract Lottery {\r\n\r\n    struct BetInfo {\r\n        uint256 answerBlockNumber;\r\n        address payable betPerson;\r\n        byte challenges;\r\n    }\r\n\r\n    uint256 private head;\r\n    uint256 private tail;\r\n    mapping(uint256=>BetInfo) private betInfoMap;\r\n\r\n    address public owner;\r\n\r\n    uint256 constant internal BET_AMOUNT = 5 * 10 ** 15;\r\n    uint256 constant internal BLOCK_INTERVAL = 3;\r\n    uint256 constant internal BLOCK_LIMIT = 256;\r\n\r\n    uint256 private pot;\r\n\r\n    enum BlockStatus {BEHIND_BLOCK_LIMIT, ON_THE_BLOCK, OVER_THE_BLOCK, UNKNOWN_STATUS}\r\n    enum BettingResult {WIN, LOSE, DRAW}\r\n\r\n    event BET(uint256 index, address betPerson,uint256 amount, uint256 answerBlockNumber, byte challenges);\r\n\r\n    constructor() public {\r\n        owner = msg.sender;\r\n    }\r\n\r\n    function getValue() public pure returns (uint256 value){\r\n        return 5;\r\n    }\r\n\r\n    function getPot() public view returns (uint256 potValue) {\r\n        return pot;\r\n    }\r\n\r\n    /**\r\n    @dev 배팅을 하고 , 이더 보내고, 해쉬값 보낸다.\r\n    @param challenges 유저입력해쉬 \r\n    @return 함수 수행여부에 따른 boolean\r\n     */\r\n    function bet(byte challenges) public payable returns (bool result) {\r\n        require(msg.value == BET_AMOUNT, 'not enough ETH');\r\n        require(pushBet(challenges), 'cant pushBet');\r\n        emit BET(tail-1, msg.sender,msg.value, block.number+BLOCK_INTERVAL, challenges);\r\n\r\n        return true;\r\n    }\r\n\r\n    /**distribute bet ETH by result */\r\n    function distribute() public {\r\n        uint256 flag;\r\n        BetInfo memory b;\r\n        BlockStatus currentStatus;\r\n\r\n        for(flag=head;flag<tail;flag++){\r\n            b = betInfoMap[flag];\r\n            currentStatus = getBlockStatus(b.answerBlockNumber);\r\n\r\n            if(currentStatus == BlockStatus.BEHIND_BLOCK_LIMIT) {\r\n                //refund\r\n                //emit refund event\r\n            } else if(currentStatus == BlockStatus.ON_THE_BLOCK) {\r\n                // win => get pot money\r\n\r\n                // lose => pay pot money\r\n\r\n                // draw => refund bet money\r\n\r\n            } else if(currentStatus == BlockStatus.OVER_THE_BLOCK) {\r\n                break;\r\n            }\r\n\r\n            popBet(flag);\r\n        }\r\n    }\r\n\r\n    function betAndDistribute(byte chall) public payable returns (bool){\r\n        bet(chall);\r\n        distribute();\r\n        return true;\r\n    }\r\n\r\n    /** check between challenge and hashnumber*/\r\n    function isMatch(byte challenges, bytes32 answer) public pure returns (BettingResult) {\r\n\r\n        byte c1 = challenges;\r\n        byte c2 = challenges;\r\n\r\n        c1 = c1 >> 4;    //0x0a\r\n        c1 = c1 << 4;    //0xa0    \r\n\r\n        c2 = c2 << 4;    //0xb0\r\n        c2 = c2 >> 4;    //0x0b  \r\n\r\n        byte a1 = answer[0];\r\n        byte a2 = answer[0];    \r\n\r\n        a1 = a1 >> 4;\r\n        a1 = a1 << 4;  \r\n\r\n        a2 = a2 << 4;\r\n        a2 = a2 >> 4;      \r\n\r\n        if(a1 == c1 && a2 == c2) {\r\n            return BettingResult.WIN;\r\n        } else if(a1 == c1 || a2 == c2) {\r\n            return BettingResult.DRAW;\r\n        }\r\n        return BettingResult.LOSE;\r\n    }\r\n\r\n    /**\r\n    BEHIND_BLOCK_LIMIT => refund\r\n    ON_THE_BLOCK => bet\r\n    OVER_THE_BLOCK=> cancel\r\n     */\r\n    function getBlockStatus(uint256 answerBlockNumber) public view returns (BlockStatus){\r\n        if(answerBlockNumber < block.number - BLOCK_LIMIT) {\r\n            return BlockStatus.BEHIND_BLOCK_LIMIT;\r\n        } else if(answerBlockNumber >= block.number - BLOCK_LIMIT && answerBlockNumber < block.number) {\r\n            return BlockStatus.ON_THE_BLOCK;\r\n        } else if(answerBlockNumber >= block.number) {\r\n            return BlockStatus.OVER_THE_BLOCK;\r\n        }\r\n        return BlockStatus.UNKNOWN_STATUS; // prevent unexpected error\r\n    }\r\n\r\n    function getBetInfo(uint256 index) public view returns (uint256 answerBlockNumber, address betPerson, byte challenges) {\r\n        BetInfo memory b = betInfoMap[index];\r\n        answerBlockNumber = b.answerBlockNumber;\r\n        betPerson = b.betPerson;\r\n        challenges = b.challenges;\r\n    }\r\n\r\n    // start bet queue\r\n    function pushBet(byte challenges) internal returns (bool){\r\n        BetInfo memory b;\r\n\r\n        b.answerBlockNumber = block.number + BLOCK_INTERVAL;\r\n        b.betPerson = msg.sender;\r\n        b.challenges = challenges;\r\n\r\n        betInfoMap[tail] = b;\r\n        tail++;\r\n\r\n        return true;\r\n    }\r\n\r\n    // end bet queue\r\n    function popBet(uint256 index) public returns (bool){\r\n        delete betInfoMap[index];\r\n        \r\n        return true;   \r\n    }\r\n}",
  "sourcePath": "C:/lottery-smartcontract/contracts/Lottery.sol",
  "compiler": {
    "name": "solc",
    "version": "0.5.0+commit.1d4f565a.Emscripten.clang"
  },
  "schemaVersion": "3.0.1",
  "updatedAt": "2019-06-22T10:53:19.534Z",
  "devdoc": {
    "methods": {
      "bet(bytes1)": {
        "details": "배팅을 하고 , 이더 보내고, 해쉬값 보낸다.\r",
        "params": {
          "challenges": "유저입력해쉬 \r"
        },
        "return": "함수 수행여부에 따른 boolean\r"
      }
    }
  },
  "userdoc": {
    "methods": {
      "distribute()": {
        "notice": "distribute bet ETH by result "
      },
      "getBlockStatus(uint256)": {
        "notice": "BEHIND_BLOCK_LIMIT => refund\r ON_THE_BLOCK => bet\r OVER_THE_BLOCK=> cancel\r"
      },
      "isMatch(bytes1,bytes32)": {
        "notice": "check between challenge and hashnumber"
      }
    }
  }
}